{
  "contractName": "BlockchainCounter",
  "abi": [
    {
      "inputs": [],
      "stateMutability": "nonpayable",
      "type": "constructor"
    },
    {
      "inputs": [
        {
          "internalType": "address",
          "name": "",
          "type": "address"
        }
      ],
      "name": "engineers",
      "outputs": [
        {
          "internalType": "bool",
          "name": "permission",
          "type": "bool"
        }
      ],
      "stateMutability": "view",
      "type": "function"
    },
    {
      "inputs": [
        {
          "internalType": "address",
          "name": "identifier",
          "type": "address"
        }
      ],
      "name": "GivePermission",
      "outputs": [
        {
          "internalType": "bytes32",
          "name": "message",
          "type": "bytes32"
        }
      ],
      "stateMutability": "nonpayable",
      "type": "function"
    },
    {
      "inputs": [
        {
          "internalType": "address",
          "name": "identifier",
          "type": "address"
        }
      ],
      "name": "RevokePermission",
      "outputs": [
        {
          "internalType": "bytes32",
          "name": "message",
          "type": "bytes32"
        }
      ],
      "stateMutability": "nonpayable",
      "type": "function"
    },
    {
      "inputs": [],
      "name": "ResetRobot",
      "outputs": [],
      "stateMutability": "nonpayable",
      "type": "function"
    },
    {
      "inputs": [
        {
          "internalType": "bytes32",
          "name": "n",
          "type": "bytes32"
        },
        {
          "internalType": "uint32",
          "name": "h",
          "type": "uint32"
        },
        {
          "internalType": "uint32",
          "name": "w",
          "type": "uint32"
        }
      ],
      "name": "ModifyRobot",
      "outputs": [
        {
          "internalType": "bytes32",
          "name": "message",
          "type": "bytes32"
        }
      ],
      "stateMutability": "nonpayable",
      "type": "function"
    }
  ],
  "bytecode": "0x608060405234801561001057600080fd5b5033600160086101000a81548173ffffffffffffffffffffffffffffffffffffffff021916908373ffffffffffffffffffffffffffffffffffffffff1602179055507f53706172652050617274730000000000000000000000000000000000000000006000819055506000600160006101000a81548163ffffffff021916908363ffffffff1602179055506000600160046101000a81548163ffffffff021916908363ffffffff160217905550610967806100cc6000396000f3fe608060405234801561001057600080fd5b50600436106100575760003560e01c806302516abd1461005c57806314feebbf1461008c578063d0781168146100bc578063d43f7847146100c6578063f9b4f33a146100f6575b600080fd5b610076600480360381019061007191906106d1565b610126565b6040516100839190610828565b60405180910390f35b6100a660048036038101906100a191906106fa565b6102c0565b6040516100b39190610828565b60405180910390f35b6100c46103d0565b005b6100e060048036038101906100db91906106d1565b6104cd565b6040516100ed919061080d565b60405180910390f35b610110600480360381019061010b91906106d1565b6104f8565b60405161011d9190610828565b60405180910390f35b6000600160089054906101000a900473ffffffffffffffffffffffffffffffffffffffff1673ffffffffffffffffffffffffffffffffffffffff163373ffffffffffffffffffffffffffffffffffffffff16146101b8576040517f08c379a00000000000000000000000000000000000000000000000000000000081526004016101af90610843565b60405180910390fd5b60001515600260008473ffffffffffffffffffffffffffffffffffffffff1673ffffffffffffffffffffffffffffffffffffffff16815260200190815260200160002060000160009054906101000a900460ff161515141561023c577f41646472657373206973206e6f7420616e20656e67696e65657200000000000090506102bb565b6001600260008473ffffffffffffffffffffffffffffffffffffffff1673ffffffffffffffffffffffffffffffffffffffff16815260200190815260200160002060000160006101000a81548160ff0219169083151502179055507f5065726d697373696f6e205265766f6b6564000000000000000000000000000090505b919050565b60008033905060011515600260008373ffffffffffffffffffffffffffffffffffffffff1673ffffffffffffffffffffffffffffffffffffffff16815260200190815260200160002060000160009054906101000a900460ff1615151461035c576040517f08c379a000000000000000000000000000000000000000000000000000000000815260040161035390610863565b60405180910390fd5b8460008190555083600160046101000a81548163ffffffff021916908363ffffffff16021790555082600160006101000a81548163ffffffff021916908363ffffffff1602179055507f526f626f74206368616e676564207375636365737366756c6c790000000000009150509392505050565b600160089054906101000a900473ffffffffffffffffffffffffffffffffffffffff1673ffffffffffffffffffffffffffffffffffffffff163373ffffffffffffffffffffffffffffffffffffffff1614610460576040517f08c379a000000000000000000000000000000000000000000000000000000000815260040161045790610843565b60405180910390fd5b7f53706172652050617274730000000000000000000000000000000000000000006000819055506000600160006101000a81548163ffffffff021916908363ffffffff1602179055506000600160046101000a81548163ffffffff021916908363ffffffff160217905550565b60026020528060005260406000206000915090508060000160009054906101000a900460ff16905081565b6000600160089054906101000a900473ffffffffffffffffffffffffffffffffffffffff1673ffffffffffffffffffffffffffffffffffffffff163373ffffffffffffffffffffffffffffffffffffffff161461058a576040517f08c379a000000000000000000000000000000000000000000000000000000000815260040161058190610843565b60405180910390fd5b60011515600260008473ffffffffffffffffffffffffffffffffffffffff1673ffffffffffffffffffffffffffffffffffffffff16815260200190815260200160002060000160009054906101000a900460ff161515141561060e577f456e67696e65657220616c726561647920686164207065726d697373696f6e00905061068d565b6001600260008473ffffffffffffffffffffffffffffffffffffffff1673ffffffffffffffffffffffffffffffffffffffff16815260200190815260200160002060000160006101000a81548160ff0219169083151502179055507f5065726d697373696f6e204772616e746564000000000000000000000000000090505b919050565b6000813590506106a1816108ec565b92915050565b6000813590506106b681610903565b92915050565b6000813590506106cb8161091a565b92915050565b6000602082840312156106e357600080fd5b60006106f184828501610692565b91505092915050565b60008060006060848603121561070f57600080fd5b600061071d868287016106a7565b935050602061072e868287016106bc565b925050604061073f868287016106bc565b9150509250925092565b610752816108a6565b82525050565b610761816108b2565b82525050565b6000610774602c83610883565b91507f596f75206d75737420626520746865206f776e657220746f20706572666f726d60008301527f207468697320616374696f6e00000000000000000000000000000000000000006020830152604082019050919050565b60006107da601983610883565b91507f506572736f6e206973206e6f7420616e20656e67696e656572000000000000006000830152602082019050919050565b60006020820190506108226000830184610749565b92915050565b600060208201905061083d6000830184610758565b92915050565b6000602082019050818103600083015261085c81610767565b9050919050565b6000602082019050818103600083015261087c816107cd565b9050919050565b600082825260208201905092915050565b600061089f826108bc565b9050919050565b60008115159050919050565b6000819050919050565b600073ffffffffffffffffffffffffffffffffffffffff82169050919050565b600063ffffffff82169050919050565b6108f581610894565b811461090057600080fd5b50565b61090c816108b2565b811461091757600080fd5b50565b610923816108dc565b811461092e57600080fd5b5056fea2646970667358221220d756a984b2515edbe54d9467d2739d13b534e34ab530644a6c404377318b640564736f6c63430008000033",
  "immutableReferences": {},
  "source": "// SPDX-License-Identifier: GPL-3.0\r\n\r\npragma solidity ^0.8.0;\r\nimport \"@openzeppelin/contracts/token/ERC20/ERC20.sol\";\r\n\r\ncontract BlockchainCounter {\r\n\r\n     bytes32 robotname;\r\n     uint32 weight;\r\n     uint32 height;\r\n\r\n\r\n    struct Engineer {\r\n        bool permission;  // if true, allows address to modify robot\r\n    }\r\n\r\n    address private owner; // contract owner\r\n\r\n     mapping(address => Engineer) public engineers;\r\n\r\n    constructor(){\r\n        owner = msg.sender;\r\n        robotname = \"Spare Parts\";\r\n        weight = 0;\r\n        height = 0;\r\n    }\r\n\r\n    \r\n\r\n\r\n    modifier isOwner() {\r\n        require(\r\n            msg.sender == owner,\r\n            \"You must be the owner to perform this action\"\r\n        );\r\n        _;\r\n    }\r\n\r\n    function GivePermission(address identifier)  public isOwner\r\n         returns(bytes32 message)\r\n    {\r\n        \r\n        if(engineers[identifier].permission == true){\r\n            return \"Engineer already had permission\";\r\n        }\r\n        else{\r\n            engineers[identifier].permission = true;\r\n            return \"Permission Granted\";\r\n        }\r\n    }\r\n\r\n      function RevokePermission(address identifier)  public isOwner\r\n         returns(bytes32 message)\r\n    {\r\n        \r\n        if(engineers[identifier].permission == false){\r\n            return \"Address is not an engineer\";\r\n        }\r\n        else{\r\n            engineers[identifier].permission = true;\r\n            return \"Permission Revoked\";\r\n        }\r\n    }\r\n\r\n    function ResetRobot() public isOwner{\r\n        robotname = \"Spare Parts\";\r\n        weight = 0;\r\n        height = 0;\r\n    }\r\n    \r\n   \r\n\r\n    function ModifyRobot(bytes32 n, uint32 h , uint32 w) public \r\n        returns(bytes32 message)\r\n    {\r\n        address person = msg.sender;\r\n        require(engineers[person].permission == true , \"Person is not an engineer\");\r\n\r\n        robotname = n;\r\n        height = h;\r\n        weight = w;\r\n\r\n        return \"Robot changed successfully\";\r\n\r\n    }\r\n    \r\n    \r\n}",
  "sourcePath": "D:\\Repositories\\BlockchainAssignment\\contracts\\RobotContract.sol",
  "compiler": {
    "name": "solc",
    "version": "0.8.0+commit.c7dfd78e.Emscripten.clang"
  },
  "schemaVersion": "3.4.4",
  "updatedAt": "2022-01-22T13:31:18.655Z",
  "devdoc": {
    "kind": "dev",
    "methods": {},
    "version": 1
  },
  "userdoc": {
    "kind": "user",
    "methods": {},
    "version": 1
  }
}