{
  "contractName": "RobotContract",
  "abi": [
    {
      "inputs": [],
      "stateMutability": "nonpayable",
      "type": "constructor"
    },
    {
      "inputs": [
        {
          "internalType": "address",
          "name": "",
          "type": "address"
        }
      ],
      "name": "engineers",
      "outputs": [
        {
          "internalType": "bool",
          "name": "permission",
          "type": "bool"
        }
      ],
      "stateMutability": "view",
      "type": "function"
    },
    {
      "inputs": [],
      "name": "height",
      "outputs": [
        {
          "internalType": "uint32",
          "name": "",
          "type": "uint32"
        }
      ],
      "stateMutability": "view",
      "type": "function"
    },
    {
      "inputs": [],
      "name": "name",
      "outputs": [
        {
          "internalType": "string",
          "name": "",
          "type": "string"
        }
      ],
      "stateMutability": "view",
      "type": "function"
    },
    {
      "inputs": [],
      "name": "robotname",
      "outputs": [
        {
          "internalType": "bytes32",
          "name": "",
          "type": "bytes32"
        }
      ],
      "stateMutability": "view",
      "type": "function"
    },
    {
      "inputs": [],
      "name": "weight",
      "outputs": [
        {
          "internalType": "uint32",
          "name": "",
          "type": "uint32"
        }
      ],
      "stateMutability": "view",
      "type": "function"
    },
    {
      "inputs": [
        {
          "internalType": "address",
          "name": "identifier",
          "type": "address"
        }
      ],
      "name": "GivePermission",
      "outputs": [
        {
          "internalType": "bytes32",
          "name": "message",
          "type": "bytes32"
        }
      ],
      "stateMutability": "nonpayable",
      "type": "function"
    },
    {
      "inputs": [
        {
          "internalType": "address",
          "name": "identifier",
          "type": "address"
        }
      ],
      "name": "RevokePermission",
      "outputs": [
        {
          "internalType": "bytes32",
          "name": "message",
          "type": "bytes32"
        }
      ],
      "stateMutability": "nonpayable",
      "type": "function"
    },
    {
      "inputs": [],
      "name": "ResetRobot",
      "outputs": [],
      "stateMutability": "nonpayable",
      "type": "function"
    },
    {
      "inputs": [],
      "name": "GetName",
      "outputs": [
        {
          "internalType": "bytes32",
          "name": "robot",
          "type": "bytes32"
        }
      ],
      "stateMutability": "view",
      "type": "function"
    },
    {
      "inputs": [
        {
          "internalType": "bytes32",
          "name": "n",
          "type": "bytes32"
        },
        {
          "internalType": "uint32",
          "name": "h",
          "type": "uint32"
        },
        {
          "internalType": "uint32",
          "name": "w",
          "type": "uint32"
        }
      ],
      "name": "ModifyRobot",
      "outputs": [
        {
          "internalType": "bytes32",
          "name": "message",
          "type": "bytes32"
        }
      ],
      "stateMutability": "nonpayable",
      "type": "function"
    }
  ],
  "bytecode": "0x60806040526040518060400160405280600e81526020017f526f626f7420436f6e7472616374000000000000000000000000000000000000815250600090805190602001906200005192919062000112565b503480156200005f57600080fd5b5033600260086101000a81548173ffffffffffffffffffffffffffffffffffffffff021916908373ffffffffffffffffffffffffffffffffffffffff1602179055507f4e657720526f626f7400000000000000000000000000000000000000000000006001819055506000600260006101000a81548163ffffffff021916908363ffffffff1602179055506000600260046101000a81548163ffffffff021916908363ffffffff16021790555062000227565b8280546200012090620001c2565b90600052602060002090601f01602090048101928262000144576000855562000190565b82601f106200015f57805160ff191683800117855562000190565b8280016001018555821562000190579182015b828111156200018f57825182559160200191906001019062000172565b5b5090506200019f9190620001a3565b5090565b5b80821115620001be576000816000905550600101620001a4565b5090565b60006002820490506001821680620001db57607f821691505b60208210811415620001f257620001f1620001f8565b5b50919050565b7f4e487b7100000000000000000000000000000000000000000000000000000000600052602260045260246000fd5b610c4380620002376000396000f3fe608060405234801561001057600080fd5b506004361061009e5760003560e01c8063ac9ed84c11610066578063ac9ed84c1461015d578063d07811681461017b578063d43f784714610185578063f9b4f33a146101b5578063fe704a9d146101e55761009e565b806302516abd146100a357806306fdde03146100d35780630ef26743146100f157806314feebbf1461010f578063a1aab33f1461013f575b600080fd5b6100bd60048036038101906100b89190610878565b610203565b6040516100ca9190610a17565b60405180910390f35b6100db61039d565b6040516100e89190610a32565b60405180910390f35b6100f961042b565b6040516101069190610a94565b60405180910390f35b610129600480360381019061012491906108a1565b610441565b6040516101369190610a17565b60405180910390f35b610147610551565b6040516101549190610a94565b60405180910390f35b610165610567565b6040516101729190610a17565b60405180910390f35b61018361056d565b005b61019f600480360381019061019a9190610878565b61066a565b6040516101ac91906109fc565b60405180910390f35b6101cf60048036038101906101ca9190610878565b610695565b6040516101dc9190610a17565b60405180910390f35b6101ed61082f565b6040516101fa9190610a17565b60405180910390f35b6000600260089054906101000a900473ffffffffffffffffffffffffffffffffffffffff1673ffffffffffffffffffffffffffffffffffffffff163373ffffffffffffffffffffffffffffffffffffffff1614610295576040517f08c379a000000000000000000000000000000000000000000000000000000000815260040161028c90610a54565b60405180910390fd5b60001515600360008473ffffffffffffffffffffffffffffffffffffffff1673ffffffffffffffffffffffffffffffffffffffff16815260200190815260200160002060000160009054906101000a900460ff1615151415610319577f41646472657373206973206e6f7420616e20656e67696e6565720000000000009050610398565b6001600360008473ffffffffffffffffffffffffffffffffffffffff1673ffffffffffffffffffffffffffffffffffffffff16815260200190815260200160002060000160006101000a81548160ff0219169083151502179055507f5065726d697373696f6e205265766f6b6564000000000000000000000000000090505b919050565b600080546103aa90610b56565b80601f01602080910402602001604051908101604052809291908181526020018280546103d690610b56565b80156104235780601f106103f857610100808354040283529160200191610423565b820191906000526020600020905b81548152906001019060200180831161040657829003601f168201915b505050505081565b600260049054906101000a900463ffffffff1681565b60008033905060011515600360008373ffffffffffffffffffffffffffffffffffffffff1673ffffffffffffffffffffffffffffffffffffffff16815260200190815260200160002060000160009054906101000a900460ff161515146104dd576040517f08c379a00000000000000000000000000000000000000000000000000000000081526004016104d490610a74565b60405180910390fd5b8460018190555083600260046101000a81548163ffffffff021916908363ffffffff16021790555082600260006101000a81548163ffffffff021916908363ffffffff1602179055507f53756363657373202d203120746f6b656e206561726e656400000000000000009150509392505050565b600260009054906101000a900463ffffffff1681565b60015481565b600260089054906101000a900473ffffffffffffffffffffffffffffffffffffffff1673ffffffffffffffffffffffffffffffffffffffff163373ffffffffffffffffffffffffffffffffffffffff16146105fd576040517f08c379a00000000000000000000000000000000000000000000000000000000081526004016105f490610a54565b60405180910390fd5b7f53706172652050617274730000000000000000000000000000000000000000006001819055506000600260006101000a81548163ffffffff021916908363ffffffff1602179055506000600260046101000a81548163ffffffff021916908363ffffffff160217905550565b60036020528060005260406000206000915090508060000160009054906101000a900460ff16905081565b6000600260089054906101000a900473ffffffffffffffffffffffffffffffffffffffff1673ffffffffffffffffffffffffffffffffffffffff163373ffffffffffffffffffffffffffffffffffffffff1614610727576040517f08c379a000000000000000000000000000000000000000000000000000000000815260040161071e90610a54565b60405180910390fd5b60011515600360008473ffffffffffffffffffffffffffffffffffffffff1673ffffffffffffffffffffffffffffffffffffffff16815260200190815260200160002060000160009054906101000a900460ff16151514156107ab577f456e67696e65657220616c726561647920686164207065726d697373696f6e00905061082a565b6001600360008473ffffffffffffffffffffffffffffffffffffffff1673ffffffffffffffffffffffffffffffffffffffff16815260200190815260200160002060000160006101000a81548160ff0219169083151502179055507f5065726d697373696f6e204772616e746564000000000000000000000000000090505b919050565b6000600154905090565b60008135905061084881610bc8565b92915050565b60008135905061085d81610bdf565b92915050565b60008135905061087281610bf6565b92915050565b60006020828403121561088a57600080fd5b600061089884828501610839565b91505092915050565b6000806000606084860312156108b657600080fd5b60006108c48682870161084e565b93505060206108d586828701610863565b92505060406108e686828701610863565b9150509250925092565b6108f981610add565b82525050565b61090881610ae9565b82525050565b600061091982610aaf565b6109238185610aba565b9350610933818560208601610b23565b61093c81610bb7565b840191505092915050565b6000610954602c83610aba565b91507f596f75206d75737420626520746865206f776e657220746f20706572666f726d60008301527f207468697320616374696f6e00000000000000000000000000000000000000006020830152604082019050919050565b60006109ba601983610aba565b91507f506572736f6e206973206e6f7420616e20656e67696e656572000000000000006000830152602082019050919050565b6109f681610b13565b82525050565b6000602082019050610a1160008301846108f0565b92915050565b6000602082019050610a2c60008301846108ff565b92915050565b60006020820190508181036000830152610a4c818461090e565b905092915050565b60006020820190508181036000830152610a6d81610947565b9050919050565b60006020820190508181036000830152610a8d816109ad565b9050919050565b6000602082019050610aa960008301846109ed565b92915050565b600081519050919050565b600082825260208201905092915050565b6000610ad682610af3565b9050919050565b60008115159050919050565b6000819050919050565b600073ffffffffffffffffffffffffffffffffffffffff82169050919050565b600063ffffffff82169050919050565b60005b83811015610b41578082015181840152602081019050610b26565b83811115610b50576000848401525b50505050565b60006002820490506001821680610b6e57607f821691505b60208210811415610b8257610b81610b88565b5b50919050565b7f4e487b7100000000000000000000000000000000000000000000000000000000600052602260045260246000fd5b6000601f19601f8301169050919050565b610bd181610acb565b8114610bdc57600080fd5b50565b610be881610ae9565b8114610bf357600080fd5b50565b610bff81610b13565b8114610c0a57600080fd5b5056fea264697066735822122091e51438f0abbeab94306b864bb2b1f02ae3afa10d6655cea34dd5bda50c1f4764736f6c63430008000033",
  "immutableReferences": {},
  "source": "// SPDX-License-Identifier: GPL-3.0\r\n\r\npragma solidity ^0.8.0;\r\nimport \"./Robot_Token.sol\";\r\n\r\ncontract RobotContract {\r\n\r\n    string  public name = \"Robot Contract\";\r\n     bytes32 public robotname;\r\n     uint32 public weight;\r\n     uint32 public height;\r\n\r\n\r\n    struct Engineer {\r\n        bool permission;  // if true, allows address to modify robot\r\n    }\r\n\r\n    address private owner; // contract owner\r\n\r\n     mapping(address => Engineer) public engineers;\r\n\r\n    constructor(){\r\n        owner = msg.sender;\r\n        robotname = \"New Robot\";\r\n        weight = 0;\r\n        height = 0;\r\n    }\r\n\r\n    \r\n\r\n\r\n    modifier isOwner() {\r\n        require(\r\n            msg.sender == owner,\r\n            \"You must be the owner to perform this action\"\r\n        );\r\n        _;\r\n    }\r\n\r\n    function GivePermission(address identifier)  public isOwner\r\n         returns(bytes32 message)\r\n    {\r\n        \r\n        if(engineers[identifier].permission == true){\r\n            return \"Engineer already had permission\";\r\n        }\r\n        else{\r\n            engineers[identifier].permission = true;\r\n            return \"Permission Granted\";\r\n        }\r\n    }\r\n\r\n      function RevokePermission(address identifier)  public isOwner\r\n         returns(bytes32 message)\r\n    {\r\n        \r\n        if(engineers[identifier].permission == false){\r\n            return \"Address is not an engineer\";\r\n        }\r\n        else{\r\n            engineers[identifier].permission = true;\r\n            return \"Permission Revoked\";\r\n        }\r\n    }\r\n\r\n    function ResetRobot() public isOwner{\r\n        robotname = \"Spare Parts\";\r\n        weight = 0;\r\n        height = 0;\r\n    }\r\n\r\n    function GetName() public view returns (bytes32 robot){\r\n        return robotname;\r\n    }\r\n    \r\n   \r\n\r\n    function ModifyRobot(bytes32 n, uint32 h , uint32 w) public \r\n        returns(bytes32 message)\r\n    {\r\n        address person = msg.sender;\r\n        require(engineers[person].permission == true , \"Person is not an engineer\");\r\n\r\n        robotname = n;\r\n        height = h;\r\n        weight = w;\r\n\r\n        \r\n        return \"Success - 1 token earned\";\r\n\r\n    }\r\n    \r\n    \r\n}",
  "sourcePath": "D:\\Repositories\\BlockchainAssignment\\contracts\\RobotContract.sol",
  "compiler": {
    "name": "solc",
    "version": "0.8.0+commit.c7dfd78e.Emscripten.clang"
  },
  "schemaVersion": "3.4.4",
  "updatedAt": "2022-01-23T18:58:42.545Z",
  "devdoc": {
    "kind": "dev",
    "methods": {},
    "version": 1
  },
  "userdoc": {
    "kind": "user",
    "methods": {},
    "version": 1
  }
}